:020000005F2976
:1000060083120313F801F9011030FC00710DF80D8D
:10001600F90D7408F8027508031C750FF902031828
:100026001B287408F80775080318750FF9070310DD
:0A003600F00DF10DFC0B0928080085
:0E0040008312031324088A002308820008009C
:10004E008316031398182D280000272883123908C9
:04005E0099000800FD
:10006200FF3083120313AD00FF30AE00FF30AF004C
:10007200FF309F01C0309F042009F00070088316F2
:0C0082009F051F179F1783121F14080012
:10008E000E3083120313FD00FD0B4B2800000800F9
:10009E0083160313981690308312980083168717D1
:1000AE00071383128C1E5E281A08F00058280800C9
:1000BE0083120313BC0105303C0203186D283C0863
:1000CE003B07840020308000BC0A62283C083B07B6
:1000DE0084008001BC033C083B07BD000A30F400DD
:1000EE00F5013908F0003A08F10003207808F00015
:1000FE007908F1003030F0073D0884007008800068
:10010E000A30F400F5013908F0003A08F100032036
:10011E007008B9007108BA0000307106031D9928E5
:10012E0000307006031D9C289E28BC037228080010
:10013E0083120313B501B6013008B7003108B800B9
:10014E0080303106F00080307002031DB028003080
:10015E0030020318BE280130B5000030B60030085A
:10016E00003CB7003108031C013EB801B802370845
:10017E00B9003808BA003208BB005F200630B30061
:10018E000030B4003408003C031DCF283308003C77
:10019E000318EA2833083207F20001303302F00068
:1001AE000030031C013E3402F10070083207840057
:1001BE000008F00072088400700880000130B3025D
:1001CE00031CB403C928320884002030800035088F
:1001DE00360403190829B301B40133083207840029
:1001EE000008203A031DFF28B30A0319B40AF428A5
:1001FE000130B302031CB4033308320784002D30E0
:04020E008000080064
:10021200831203139F01C0309F042009F00070086D
:1002220083169F051F179F1783123008F000F00DE9
:100232007010F00D7010F00D701070089F041F14F4
:1002420047201F151F1D2729000023291F101E08E4
:10025200F100F00183161E08F0040030F1040800DA
:1002620083120313B201300884000008B100310880
:10027200003A031946293108B9002720B20A320888
:0C028200300784000008B1003829080093
:10028E0020208A110A128000840AA30A0319A40AE4
:08029E00F003031D47290800CD
:1002A6008316031386018312860133308316990061
:0802B60018154F20312008004B
:1002BE00902153210F308600B0010921700883125E
:1002CE00A1007108A2007008B0007108B1002530BD
:1002DE00B2009F202530B00031210D30B90027200B
:1002EE000630FB001330FC00AD30FD00FD0B7D2908
:1002FE00FC0B7D29FB0B7D2900000000612986295E
:1003200020308400033083120313F0008C30A300CC
:080330000130A4004721080080
:020318000F34A0
:04031A000034003477
:02400E004A2F37
:00000001FF
