:020000001628C0
:0E000600831203132B088A002A0882000800C8
:1000140003208A110A128000840AAA0A0319AB0A6F
:08002400F003031D0A28080087
:10002C0083120313A0013E30A1000930A200093055
:10003C00A3003E30A400A501A601A701A801A901B7
:10004C008316860188018312A801A9018030290634
:10005C00F00080307002031D352808302802031888
:10006C0056282808F1000130F000710803194228C5
:10007C00F00D7010FF3E3C28700888002808203EC8
:10008C008400000886000630FC003030FD00FD0BBB
:10009C004D28FC0B4D280000A80A0319A90A2C288E
:0400AC002928572880
:02400E004A2F37
:00000001FF
