:020000000529D0
:0E000600213083120313FD00FD0B07280800B4
:100014000F3083120313FC004730FD00FD0B102842
:0A002400FC0B10280000000008008B
:06002E00000000000800C4
:1000340083120313BF1B20288611212886153F1B1A
:100044002528061126280615BF1A2A2886102B28CB
:1000540086143F1A2F28061030280614371834281F
:10006400061635280612861617208612BF193C2854
:1000740086113D2886153F19412806114228061588
:10008400BF1846288610472886143F184B280610A8
:100094004C280614371850280616512806128616BE
:1000A40017208612371C58280A20592803200800D4
:1000B4008316031386120612061086100611861183
:1000C40083128612061286110611861006100A2063
:1000D4000A200A20861406148616172086120A207F
:1000E4008616172086120A208616172086120A20E2
:1000F40006108616172086120A20861617208612E6
:10010400861086158616172086120A208611061474
:1001140086161720861206108616172086120A20C5
:1001240086161720861206148616172086120A20B1
:1001340006108616172086128615061586140614D0
:0C0144008616172086120A2037140800C7
:0E0150008312031339088A0038088200080061
:10015E008312031337103E08BF001A20371408000D
:04016E005A2008000B
:10017200CB28803083120313BA00DE28C030BA00C5
:10018200DE289430BA00DE28D430BA00DE2880306F
:10019200BA00DE28831203133A08013A0319BA2877
:1001A2003A08023A0319BF283A08033A0319C22847
:1001B2003A08043A0319C528C8283B03F0003A0854
:1001C200F0077008BA007008BF001A203710BD018E
:1001D2003D083C07840000080319F7283D083C0746
:1001E20084000008BE00AF20BD0AE92837140800C9
:1001F200A8208A110A128000840AB80A0319B90ACF
:08020200F003031DF9280800B8
:10020A00413083120313A0006C30A1006930A200B0
:10021A002030A3002030A4002030A5002030A60002
:10022A002030A7002030A8002030A9002030AA00E2
:10023A00AB015030AC006130AD007230AE007630A8
:10024A00AF006530B0007A30B1002030B200203003
:10025A00B3002030B4002030B500B601B720013019
:10026A00BA000130BB002C30BC00B9200230BA0001
:10027A000130BB002030BC00B9200B30FB00263017
:10028A00FC005D30FD00FD0B4829FC0B4829FB0BE7
:0A029A004829000000003429512912
:02400E004A2F37
:00000001FF
