:020000000328D3
:1000060083160313860183128601061486100B30AD
:10001600FB002630FC005D30FD00FD0B1028FC0BBC
:100026001028FB0B10280000000006108610063072
:10003600FB001330FC00AD30FD00FD0B2028FC0B4F
:100046002028FB0B202800000000061086140B3029
:10005600FB002630FC005D30FD00FD0B3028FC0B5C
:100066003028FB0B302800000000061086100630F2
:10007600FB001330FC00AD30FD00FD0B4028FC0BEF
:0E0086004028FB0B40280000000008284928F5
:02400E004A2F37
:00000001FF
