:020000001628C0
:0E000600831203132B088A002A0882000800C8
:1000140003208A110A128000840AAA0A0319AB0A6F
:08002400F003031D0A28080087
:10002C003F3083120313A0000630A1005B30A20006
:10003C004F30A3006630A4006D30A5007D30A600C3
:10004C000730A7007F30A8006F30A9008316860107
:10005C00870183128601FF30870007102108860074
:10006C001A30FC00F830FD00FD0B3A28FC0B3A2846
:10007C00000007148710230886001A30FC00F830A3
:10008C00FD00FD0B4728FC0B4728000087140711C7
:10009C00250886001A30FC00F830FD00FD0B5428B2
:1000AC00FC0B5428000007158711270886001A300E
:1000BC00FC00F830FD00FD0B6128FC0B61280000F2
:1000CC0087150710210886001A30FC00F830FD0057
:1000DC00FD0B6E28FC0B6E280000071487102308FC
:1000EC0086001A30FC00F830FD00FD0B7B28FC0B61
:1000FC007B28000087140711250886001A30FC00A5
:10010C00F830FD00FD0B8828FC0B88280000071533
:10011C008711270886001A30FC00F830FD00FD0B13
:10012C009528FC0B952800008715071021088600E0
:10013C001A30FC00F830FD00FD0BA228FC0BA228A5
:10014C00000007148710230886001A30FC00F830D2
:10015C00FD00FD0BAF28FC0BAF2800008714071126
:10016C00250886001A30FC00F830FD00FD0BBC2879
:10017C00FC0BBC28000007158711270886001A30D5
:10018C00FC00F830FD00FD0BC928FC0BC928000051
:10019C0087150710210886001A30FC00F830FD0086
:1001AC00FD0BD628FC0BD62800000714871023085B
:1001BC0086001A30FC00F830FD00FD0BE328FC0B28
:1001CC00E328000087140711250886001A30FC006C
:1001DC00F830FD00FD0BF028FC0BF0280000071593
:1001EC008711270886001A30FC00F830FD00FD0B43
:1001FC00FD28FC0BFD280000871507102108860040
:10020C001A30FC00F830FD00FD0B0A29FC0B0A2902
:10021C00000007148710230886001A30FC00F83001
:10022C00FD00FD0B1729FC0B172900008714071183
:10023C00250886001A30FC00F830FD00FD0B24293F
:10024C00FC0B2429000007158711270886001A309B
:10025C00FC00F830FD00FD0B3129FC0B31290000AE
:10026C0087150710210886001A30FC00F830FD00B5
:10027C00FD0B3E29FC0B3E290000071487102308B8
:10028C0086001A30FC00F830FD00FD0B4B29FC0BEE
:10029C004B29000087140711250886001A30FC0032
:1002AC00F830FD00FD0B5829FC0B582900000715F0
:1002BC008711270886001A30FC00F830FD00FD0B72
:1002CC006529FC0B6529000087150710210886009D
:1002DC001A30FC00F830FD00FD0B7229FC0B722962
:1002EC00000007148710230886001A30FC00F83031
:1002FC00FD00FD0B7F29FC0B7F29000087140711E3
:10030C00250886001A30FC00F830FD00FD0B8C2906
:10031C00FC0B8C29000007158711270886001A3062
:10032C00FC00F830FD00FD0B9929FC0B992900000D
:10033C0087150710210886001A30FC00F830FD00E4
:10034C00FD0BA629FC0BA629000007148710230817
:10035C0086001A30FC00F830FD00FD0BB329FC0BB5
:10036C00B329000087140711250886001A30FC00F9
:10037C00F830FD00FD0BC029FC0BC029000007154F
:10038C008711270886001A30FC00F830FD00FD0BA1
:10039C00CD29FC0BCD2900008715071021088600FC
:1003AC001A30FC00F830FD00FD0BDA29FC0BDA29C1
:1003BC00000007148710230886001A30FC00F83060
:1003CC00FD00FD0BE729FC0BE72900008714071142
:1003DC00250886001A30FC00F830FD00FD0BF429CE
:1003EC00FC0BF429000007158711270886001A302A
:1003FC00FC00F830FD00FD0B012AFC0B012A00006B
:10040C0087150710210886001A30FC00F830FD0013
:10041C00FD0B0E2AFC0B0E2A000007148710230874
:10042C0086001A30FC00F830FD00FD0B1B2AFC0B7B
:10043C001B2A000087140711250886001A30FC00BF
:10044C00F830FD00FD0B282AFC0B282A00000715AC
:10045C008711270886001A30FC00F830FD00FD0BD0
:10046C00352AFC0B352A0000871507102108860059
:10047C001A30FC00F830FD00FD0B422AFC0B422A1E
:10048C00000007148710230886001A30FC00F8308F
:10049C00FD00FD0B4F2AFC0B4F2A0000871407119F
:1004AC00250886001A30FC00F830FD00FD0B5C2A94
:1004BC00FC0B5C2A000007158711270886001A30F0
:1004CC00FC00F830FD00FD0B692AFC0B692A0000CA
:1004DC0087150710210886001A30FC00F830FD0043
:1004EC00FD0B762AFC0B762A0000071487102308D4
:1004FC0086001A30FC00F830FD00FD0B832AFC0B43
:10050C00832A000087140711250886001A30FC0086
:10051C00F830FD00FD0B902AFC0B902A000007150B
:10052C008711270886001A30FC00F830FD00FD0BFF
:10053C009D2AFC0B9D2A00008715071021088600B8
:10054C001A30FC00F830FD00FD0BAA2AFC0BAA2A7D
:10055C00000007148710230886001A30FC00F830BE
:10056C00FD00FD0BB72AFC0BB72A000087140711FE
:10057C00250886001A30FC00F830FD00FD0BC42A5B
:10058C00FC0BC42A000007158711270886001A30B7
:10059C00FC00F830FD00FD0BD12AFC0BD12A000029
:1005AC0087150710210886001A30FC00F830FD0072
:1005BC00FD0BDE2AFC0BDE2A000007148710230833
:1005CC0086001A30FC00F830FD00FD0BEB2AFC0B0A
:1005DC00EB2A000087140711250886001A30FC004E
:1005EC00F830FD00FD0BF82AFC0BF82A000007156B
:1005FC008711270886001A30FC00F830FD00FD0B2F
:10060C00052BFC0B052B0000871507102108860015
:10061C001A30FC00F830FD00FD0B122BFC0B122BDA
:10062C00000007148710230886001A30FC00F830ED
:10063C00FD00FD0B1F2BFC0B1F2B0000871407115B
:10064C00250886001A30FC00F830FD00FD0B2C2B21
:10065C00FC0B2C2B000007158711270886001A307D
:10066C00FC00F830FD00FD0B392BFC0B392B000086
:10067C0087150710210886001A30FC00F830FD00A1
:10068C00FD0B462BFC0B462B000007148710230890
:10069C0086001A30FC00F830FD00FD0B532BFC0BD0
:1006AC00532B000087140711250886001A30FC0014
:1006BC00F830FD00FD0B602BFC0B602B00000715C8
:1006CC008711270886001A30FC00F830FD00FD0B5E
:1006DC006D2BFC0B6D2B0000871507102108860075
:1006EC001A30FC00F830FD00FD0B7A2BFC0B7A2B3A
:1006FC00000007148710230886001A30FC00F8301D
:10070C00FD00FD0B872BFC0B872B000087140711BA
:10071C00250886001A30FC00F830FD00FD0B942BE8
:10072C00FC0B942B000007158711270886001A3044
:10073C00FC00F830FD00FD0BA12BFC0BA12B0000E5
:10074C0087150710210886001A30FC00F830FD00D0
:10075C00FD0BAE2BFC0BAE2B0000071487102308EF
:10076C0086001A30FC00F830FD00FD0BBB2BFC0B97
:10077C00BB2B000087140711250886001A30FC00DB
:10078C00F830FD00FD0BC82BFC0BC82B0000071527
:10079C008711270886001A30FC00F830FD00FD0B8D
:1007AC00D52BFC0BD52B00008715071021088600D4
:1007BC001A30FC00F830FD00FD0BE22BFC0BE22B99
:1007CC00000007148710230886001A30FC00F8304C
:1007DC00FD00FD0BEF2BFC0BEF2B0000871407111A
:1007EC00250886001A30FC00F830FD00FD0BFC2BB0
:1007FC00FC0BFC2B000007158711270886001A300C
:10080C00FC00F830FD00FD0B092CFC0B092C000042
:10081C0087150710210886001A30FC00F830FD00FF
:10082C00FD0B162CFC0B162C00000714871023084C
:10083C0086001A30FC00F830FD00FD0B232CFC0B5D
:10084C00232C000087140711250886001A30FC00A1
:10085C00F830FD00FD0B302CFC0B302C0000071584
:10086C008711270886001A30FC00F830FD00FD0BBC
:10087C003D2CFC0B3D2C0000871507102108860031
:10088C001A30FC00F830FD00FD0B4A2CFC0B4A2CF6
:10089C00000007148710230886001A30FC00F8307B
:1008AC00FD00FD0B572CFC0B572C00008714071177
:1008BC00250886001A30FC00F830FD00FD0B642C76
:1008CC00FC0B642C000007158711270886001A30D2
:1008DC00FC00F830FD00FD0B712CFC0B712C0000A2
:1008EC0087150710210886001A30FC00F830FD002F
:1008FC00FD0B7E2CFC0B7E2C0000071487102308AC
:10090C0086001A30FC00F830FD00FD0B8B2CFC0B24
:10091C008B2C000087140711250886001A30FC0068
:10092C00F830FD00FD0B982CFC0B982C00000715E3
:10093C008711270886001A30FC00F830FD00FD0BEB
:10094C00A52CFC0BA52C0000871507102108860090
:10095C001A30FC00F830FD00FD0BB22CFC0BB22C55
:10096C00000007148710230886001A30FC00F830AA
:10097C00FD00FD0BBF2CFC0BBF2C000087140711D6
:10098C00250886001A30FC00F830FD00FD0BCC2C3D
:10099C00FC0BCC2C000007158711270886001A3099
:1009AC00FC00F830FD00FD0BD92CFC0BD92C000001
:1009BC0087150710210886001A30FC00F830FD005E
:1009CC00FD0BE62CFC0BE62C00000714871023080B
:1009DC0086001A30FC00F830FD00FD0BF32CFC0BEC
:1009EC00F32C000087140711250886001A30FC0030
:1009FC00F830FD00FD0B002DFC0B002D0000071541
:100A0C008711270886001A30FC00F830FD00FD0B1A
:100A1C000D2DFC0B0D2D00008715071021088600ED
:100A2C001A30FC00F830FD00FD0B1A2DFC0B1A2DB2
:100A3C00000007148710230886001A30FC00F830D9
:100A4C00FD00FD0B272DFC0B272D00008714071133
:100A5C00250886001A30FC00F830FD00FD0B342D03
:100A6C00FC0B342D000007158711270886001A305F
:100A7C00FC00F830FD00FD0B412DFC0B412D00005E
:100A8C0087150710210886001A30FC00F830FD008D
:100A9C00FD0B4E2DFC0B4E2D000007148710230868
:100AAC0086001A30FC00F830FD00FD0B5B2DFC0BB2
:100ABC005B2D000087140711250886001A30FC00F6
:100ACC00F830FD00FD0B682DFC0B682D00000715A0
:100ADC008711270886001A30FC00F830FD00FD0B4A
:100AEC00752DFC0B752D000087150710210886004D
:100AFC001A30FC00F830FD00FD0B822DFC0B822D12
:100B0C00000007148710230886001A30FC00F83008
:100B1C00FD00FD0B8F2DFC0B8F2D00008714071192
:100B2C00250886001A30FC00F830FD00FD0B9C2DCA
:100B3C00FC0B9C2D000007158711270886001A3026
:100B4C00FC00F830FD00FD0BA92DFC0BA92D0000BD
:060B5C0087153328B02DBF
:02400E004A2F37
:00000001FF
