:020000004F2B84
:10000600831603178C1C0928000003288312031388
:10001600500803178D000313510803178C0083162D
:100026008C130C150B08F0008B1355308D00AA307D
:100036008D008C14F01B21288B1322288B170C1192
:020046000800B0
:10004800831203134C08D000FF304E05D100032063
:10005800831203134C0AD0004F08F000F101FF305F
:080068007005D100032008001F
:10007000831203134C0803178D0083168C130C1482
:0800800083120C08F0000800D7
:1000880083120313F801F9011030FC00710DF80D0B
:10009800F90D7408F8027508031C750FF9020318A6
:1000A8005C287408F80775080318750FF90703101A
:0A00B800F00DF10DFC0B4A280800C2
:1000C20083120313CC01CD012008CE002108CF00FA
:1000D2002420023083120313CC000030CD003A08F2
:1000E200CE003B08CF002420043083120313CC003F
:1000F2000030CD003C08CE003D08CF00242008008F
:0E0102008312031341088A004008820008009F
:100110000A3083120313F4000030F5004908F000A0
:100120004A08F10044207808F0007908F1007008CE
:10013000BE007108BF000A30F4000030F500490825
:10014000F0004A08F10044207008A2007108A300E2
:1001500085157008F200F20D72107208243E8400BA
:100160000008870005110D30FC00FB30FD00FD0B81
:10017000B728FC0BB7280000000005153E08F0006A
:10018000F00D70107008243E84000008870085116F
:100190000D30FC00FB30FD00FD0BCC28FC0BCC2807
:0601A00000000000080051
:1001A6000A3083120313F4000030F5004908F0000A
:1001B6004A08F10044207808F0007908F100700838
:1001C600BE007108BF000A30F4000030F50049088F
:1001D600F0004A08F10044207008A2007108A3004C
:1001E60085147008F200F20D72107208243E840025
:1001F6000008860005100D30FC00FB30FD00FD0BED
:100206000229FC0B02290000000005143E08F0003C
:10021600F00D70107008243E8400000886008510DA
:100226000D30FC00FB30FD00FD0B1729FC0B1729D8
:06023600000000000800BA
:10023C00831203134908CC00382070080313CB0039
:10024C00490ACC0038207008F300F201720803133D
:0C025C004B04F00000307304F1000800B7
:1002680083120313C701C801A001A101BA01BB0190
:10027800BC01BD0101308900881E5B29881E5229F6
:10028800C70A0319C80A0D30FC00FB30FD00FD0B3E
:100298004B29FC0B4B290000000042290030480282
:1002A800031D5829C8304702031C5B29AC29081FC5
:1002B8007E29081F6A290D30FC00FB30FD00FD0B6C
:1002C8006329FC0B6329000000005D29003021022E
:1002D800031D702963302002031875290130C200FC
:1002E8007629C2014208A0070318A10A0030C21BE0
:1002F800FF30A107881FA129881F8D290D30FC0018
:10030800FB30FD00FD0B8629FC0B86290000000050
:1003180080292108003C031D93292008003C03186C
:1003280098290130C3009929C3014308A00200306D
:10033800C31BFF30031C013EA1022008C90021088D
:10034800CA00D3203C08C9003D08CA0088204029BB
:10035800C701C80102308900881ECB29881EC2291E
:10036800C70A0319C80A0D30FC00FB30FD00FD0B5D
:10037800BB29FC0BBB2900000000B2290030480251
:10038800031DC829C8304702031CCB290B2A081FA4
:10039800DD29081FDA290D30FC00FB30FD00FD0BBC
:1003A800D329FC0BD32900000000CD29BA0A031970
:1003B800BB0A881F002A881FEC290D30FC00FB307F
:1003C800FD00FD0BE529FC0BE52900000000DF29F5
:1003D8003B08003C031DF2293A08003C0318F729A2
:1003E8000130C400F829C4014408BA020030C41B13
:1003F800FF30031C013EBB023A08C9003B08CA0093
:10040800D3203C08C9003D08CA008820B029C7018C
:10041800C80104308900881E2A2A881E212AC70A92
:100428000319C80A0D30FC00FB30FD00FD0B1A2A29
:10043800FC0B1A2A00000000112A00304802031D94
:10044800272AC8304702031C2A2A792A081F4D2A5E
:10045800081F392A0D30FC00FB30FD00FD0B322A45
:10046800FC0B322A000000002C2A00303D02031D3C
:100478003F2A10303C020318442A0130C500452A9F
:10048800C5014508BC070318BD0A0030C51BFF306D
:10049800BD07881F702A881F5C2A0D30FC00FB30BE
:1004A800FD00FD0B552AFC0B552A000000004F2AC1
:1004B8003D08003C031D622A3C08003C0318672ADB
:1004C8000130C600682AC6014608BC020030C61BB7
:1004D800FF30031C013EBD02C901CA01D3203C08FC
:1004E800C9003D08CA0088200F2A612007308312FE
:0604F80003138900080057
:1004FE0083120313C201C301C401C501C601C701A2
:10050E0007308900C201C3013D084302031D912A31
:10051E003C0842020318062B851642088800C401C7
:10052E00C50121084502031D9E2A20084402031816
:10053E00BE2AC601C70100304702031DA82A053096
:10054E0046020318BA2AC901CA01D3204208013E45
:10055E00C90000300318013E4307CA008820C60AAE
:10056E000319C70AA22AC40A0319C50A982A8512B2
:10057E00C401C5013B084502031DC72A3A084402BF
:10058E000318022BC601C70100304702031DD12AF2
:10059E00323046020318FE2A44083A02C9004508C2
:1005AE00031C013E3B02CA00D3204208013EF1006B
:1005BE0000300318013E4307F20072083D06031D8A
:1005CE00EA2A3C087106031DF22A0130C9000030E8
:1005DE00CA008820FA2A02304207C90043080318CD
:1005EE00013ECA008820C60A0319C70ACB2AC40ACC
:1005FE000319C50AC12AC20A0319C30A8B2A892AFA
:02060E000800E2
:1006100083120313C901CA011E217008A0007108CA
:10062000A1000230C9000030CA001E217008BA00C3
:100630007108BB000430C9000030CA001E217008D8
:08064000BC007108BD000800B8
:100648000730831603139F00870107088600F030E0
:1006580088008501890183128701070886008801BF
:0606680085018901080074
:10066E0081208A110A128000840AC00A0319C10A65
:08067E00F003031D372B0800F7
:1006860083120313081E4C2B0130B8000030B9004A
:080696004E2BB801B901080068
:10069E0083120313A001A101A201A3013F30A40004
:1006AE00A5010630A600A7015B30A800A9014F30B6
:1006BE00AA00AB016630AC00AD016D30AE00AF01EB
:1006CE007D30B000B1010730B200B3017F30B4000D
:1006DE00B5016F30B600B7010130B800B901BA01EB
:1006EE00BB01BC01BD01BE01BF012423432308236E
:0E06FE00380839040319842B34217F22852B00
:02400E004A2F37
:00000001FF
