:020000002528B1
:0E0006008312031329088A00280882000800CC
:1000140003208A110A128000840AA80A0319A90A73
:08002400F003031D0A28080087
:10002C0083160313860183128601831687018312BC
:0E003C008701FF3083168800831288010800B8
:10004A0083120313A001A1010530A200A301053008
:10005A00A400A501A601A7011620081C7528081CE2
:10006A00372834282208013EF10000300318013EE7
:10007A002307F2008030F000803072067002031D00
:10008A00482871080A3C03184C28AA014E28013056
:10009A00AA002A08A2070318A30A0030AA1BFF30E5
:1000AA00A30701302402F1000030031C013E25029F
:1000BA00F20080307206F00080307002031D67285B
:1000CA000030710203186B28AB016D280130AB00B8
:1000DA002B08A4020030AB1BFF30031C013EA50213
:1000EA00881CB828881C7A28772801302202F10057
:1000FA000030031C013E2302F20080307206F00039
:10010A0080307002031D8B280030710203188F287B
:10011A00AC0191280130AC002C08A2020030AC1BC3
:10012A00FF30031C013EA3022408013EF100003007
:10013A000318013E2507F2008030F0008030720675
:10014A007002031DAA2871080A3C0318AE28AD01E3
:10015A00B0280130AD002D08A4070318A50A003005
:10016A00AD1BFF30A50701308600A601A70180302C
:10017A002706F000803023067002031DC6282208D5
:10018A0026020318D6280330FC009730FD00FD0B29
:10019A00CC28FC0BCC2800000000A60A0319A70AE9
:1001AA00BC288601A001A10180302106F000803020
:1001BA0025067002031DE328240820020318F328E9
:1001CA000330FC009730FD00FD0BE928FC0BE92801
:1001DA0000000000A00A0319A10AD9283228F4282D
:02400E004A2F37
:00000001FF
