:0200000079285D
:1000060083120313F101F20100307202031D0D2861
:10001600323071020318252806140430FC005F30C4
:10002600FD00FD0B1428FC0B142806103130FC00D3
:100036009130FD00FD0B1D28FC0B1D28F10A03194C
:06004600F20A0728080081
:10004C0083120313F101F20100307202031D3028F8
:10005C003230710203184B2806140630FC00B53000
:10006C00FD00FD0B3728FC0B3728000000000610A4
:10007C002F30FC003A30FD00FD0B4228FC0B4228CF
:0C008C000000F10A0319F20A2A280800FB
:1000980083120313F101F20100307202031D562886
:1000A800323071020318782806140430FC00E1305D
:1000B800FD00FD0B5D28FC0B5D2800307206031D5A
:1000C800672800307106031D692806103130FC00CE
:1000D8000B30FD00FD0B6E28FC0B6E2800000000A5
:0A00E800F10A0319F20A502808007B
:1000F20083160313860103201530FB004B30FC00EE
:10010200BE30FD00FD0B8328FC0B8328FB0B8328EC
:1001120000004C201530FB004B30FC00BE30FD00CF
:10012200FD0B9128FC0B9128FB0B91280000262047
:100132001530FB004B30FC00BE30FD00FD0B9F284C
:10014200FC0B9F28FB0B9F2800004C201530FB0066
:100152004B30FC00BE30FD00FD0BAD28FC0BAD2882
:0A016200FB0BAD2800007C28B52837
:02400E004A2F37
:00000001FF
