:020000001628C0
:0E000600831203132B088A002A0882000800C8
:1000140003208A110A128000840AAA0A0319AB0A6F
:08002400F003031D0A28080087
:10002C003F3083120313A0000630A1005B30A20006
:10003C004F30A3006630A4006D30A5007D30A600C3
:10004C000730A7007F30A8006F30A900AC01AD01CC
:10005C008316860183128601831607148714831274
:10006C0007100710071C542880302D06F000803034
:10007C007002031D432809302C0203185428071C56
:10008C0051281A30FC00F830FD00FD0B4B28FC0BFE
:10009C004B2800004528AC0A0319AD0A871C7128AF
:1000AC008030F00080302D067002031D5F282C0874
:1000BC00003C03187128871C6D281A30FC00F8309E
:1000CC00FD00FD0B6728FC0B672800006128013040
:1000DC00AC02031CAD032C08203E840000088600F3
:1000EC00071C922880302D06F00080307002031D12
:1000FC00812809302C0203189228071C8F281A30EB
:10010C00FC00F830FD00FD0B8928FC0B8928000051
:10011C008328AC0A0319AD0A871CAF288030F00085
:10012C0080302D067002031D9D282C08003C0318FE
:10013C00AF28871CAB281A30FC00F830FD00FD0BF3
:10014C00A528FC0BA52800009F280130AC02031C3D
:10015C00AD032C08203E840000088600071CD02824
:10016C0080302D06F00080307002031DBF2809304E
:10017C002C020318D028071CCD281A30FC00F830AC
:10018C00FD00FD0BC728FC0BC7280000C128AC0ADA
:10019C000319AD0A871CED288030F00080302D0645
:1001AC007002031DDB282C08003C0318ED28871C6B
:1001BC00E9281A30FC00F830FD00FD0BE328FC0B9D
:1001CC00E3280000DD280130AC02031CAD032C0831
:1001DC00203E840000088600071C0E2980302D0666
:1001EC00F00080307002031DFD2809302C0203182A
:1001FC000E29071C0B291A30FC00F830FD00FD0BF2
:10020C000529FC0B05290000FF28AC0A0319AD0ACF
:10021C00871C2B298030F00080302D067002031DC6
:10022C0019292C08003C03182B29871C27291A3064
:10023C00FC00F830FD00FD0B2129FC0B21290000EE
:10024C001B290130AC02031CAD032C08203E84009A
:10025C0000088600071C4C2980302D06F0008030E9
:10026C007002031D3B2909302C0203184C29071C72
:10027C0049291A30FC00F830FD00FD0B4329FC0B1A
:10028C00432900003D29AC0A0319AD0A871C6929D2
:10029C008030F00080302D067002031D57292C0889
:1002AC00003C03186929871C65291A30FC00F830BA
:1002BC00FD00FD0B5F29FC0B5F2900005929013063
:1002CC00AC02031CAD032C08203E84000008860001
:1002DC00071C8A2980302D06F00080307002031D27
:1002EC00792909302C0203188A29071C87291A300E
:1002FC00FC00F830FD00FD0B8129FC0B812900006E
:10030C007B29AC0A0319AD0A871CA7298030F000A1
:10031C0080302D067002031D95292C08003C031813
:10032C00A729871CA3291A30FC00F830FD00FD0B0F
:10033C009D29FC0B9D29000097290130AC02031C60
:10034C00AD032C08203E840000088600071CC82939
:10035C0080302D06F00080307002031DB729093063
:10036C002C020318C829071CC5291A30FC00F830C8
:10037C00FD00FD0BBF29FC0BBF290000B929AC0AFD
:10038C000319AD0A871CE5298030F00080302D065A
:10039C007002031DD3292C08003C0318E529871C87
:1003AC00E1291A30FC00F830FD00FD0BDB29FC0BB9
:1003BC00DB290000D5290130AC02031CAD032C084D
:1003CC00203E840000088600071C062A80302D067B
:1003DC00F00080307002031DF52909302C0203183F
:1003EC00062A071C032A1A30FC00F830FD00FD0B0E
:1003FC00FD29FC0BFD290000F729AC0A0319AD0AF5
:10040C00871C232A8030F00080302D067002031DDB
:10041C00112A2C08003C0318232A871C1F2A1A3087
:10042C00FC00F830FD00FD0B192AFC0B192A00000A
:10043C00132A0130AC02031CAD032C08203E8400AF
:10044C0000088600071C442A80302D06F0008030FE
:10045C007002031D332A09302C020318442A071C8E
:10046C00412A1A30FC00F830FD00FD0B3B2AFC0B36
:10047C003B2A0000352AAC0A0319AD0A871C612AF5
:10048C008030F00080302D067002031D4F2A2C089E
:10049C00003C0318612A871C5D2A1A30FC00F830D6
:1004AC00FD00FD0B572AFC0B572A0000512A013086
:1004BC00AC02031CAD032C08203E8400000886000F
:1004CC00071C822A80302D06F00080307002031D3C
:1004DC00712A09302C020318822A071C7F2A1A3031
:1004EC00FC00F830FD00FD0B792AFC0B792A00008A
:1004FC00732AAC0A0319AD0A871C9F2A8030F000BE
:10050C0080302D067002031D8D2A2C08003C031828
:10051C009F2A871C9B2A1A30FC00F830FD00FD0B2B
:10052C00952AFC0B952A00008F2A0130AC02031C83
:10053C00AD032C08203E840000088600071CC02A4E
:10054C0080302D06F00080307002031DAF2A093078
:10055C002C020318C02A071CBD2A1A30FC00F830E4
:10056C00FD00FD0BB72AFC0BB72A0000B12AAC0A20
:10057C000319AD0A871CDD2A8030F00080302D066F
:10058C007002031DCB2A2C08003C0318DD2A871CA3
:10059C00D92A1A30FC00F830FD00FD0BD32AFC0BD5
:1005AC00D32A0000CD2A0130AC02031CAD032C0869
:1005BC00203E840000088600071CFE2A80302D0691
:1005CC00F00080307002031DED2A09302C02031854
:1005DC00FE2A071CFB2A1A30FC00F830FD00FD0B2C
:1005EC00F52AFC0BF52A0000EF2AAC0A0319AD0A18
:1005FC00871C1B2B8030F00080302D067002031DF1
:10060C00092B2C08003C03181B2B871C172B1A30AA
:10061C00FC00F830FD00FD0B112BFC0B112B000026
:10062C000B2B0130AC02031CAD032C08203E8400C4
:10063C0000088600071C3C2B80302D06F000803013
:10064C007002031D2B2B09302C0203183C2B071CAA
:10065C00392B1A30FC00F830FD00FD0B332BFC0B52
:10066C00332B00002D2BAC0A0319AD0A871C592B18
:10067C008030F00080302D067002031D472B2C08B3
:10068C00003C0318592B871C552B1A30FC00F830F2
:10069C00FD00FD0B4F2BFC0B4F2B0000492B0130A9
:1006AC00AC02031CAD032C08203E8400000886001D
:1006BC00071C7A2B80302D06F00080307002031D51
:1006CC00692B09302C0203187A2B071C772B1A3054
:1006DC00FC00F830FD00FD0B712BFC0B712B0000A6
:1006EC006B2BAC0A0319AD0A871C972B8030F000DA
:1006FC0080302D067002031D852B2C08003C03183E
:10070C00972B871C932B1A30FC00F830FD00FD0B47
:10071C008D2BFC0B8D2B0000872B0130AC02031CA6
:10072C00AD032C08203E840000088600071CB82B63
:10073C0080302D06F00080307002031DA72B09308D
:10074C002C020318B82B071CB52B1A30FC00F83000
:10075C00FD00FD0BAF2BFC0BAF2B0000A92BAC0A43
:10076C000319AD0A871CD52B8030F00080302D0684
:10077C007002031DC32B2C08003C0318D52B871CBF
:10078C00D12B1A30FC00F830FD00FD0BCB2BFC0BF1
:10079C00CB2B0000C52B0130AC02031CAD032C0885
:1007AC00203E840000088600071CF62B80302D06A6
:1007BC00F00080307002031DE52B09302C02031869
:1007CC00F62B071CF32B1A30FC00F830FD00FD0B48
:1007DC00ED2BFC0BED2B0000E72BAC0A0319AD0A3B
:1007EC00871C132C8030F00080302D067002031D06
:1007FC00012C2C08003C0318132C871C0F2C1A30CE
:10080C00FC00F830FD00FD0B092CFC0B092C000042
:10081C00032C0130AC02031CAD032C08203E8400D9
:10082C0000088600071C342C80302D06F000803028
:10083C007002031D232C09302C020318342C071CC6
:10084C00312C1A30FC00F830FD00FD0B2B2CFC0B6E
:10085C002B2C0000252CAC0A0319AD0A871C512C3B
:10086C008030F00080302D067002031D3F2C2C08C8
:10087C00003C0318512C871C4D2C1A30FC00F8300E
:10088C00FD00FD0B472CFC0B472C0000412C0130CC
:10089C00AC02031CAD032C08203E8400000886002B
:1008AC00071C722C80302D06F00080307002031D66
:1008BC00612C09302C020318722C071C6F2C1A3077
:1008CC00FC00F830FD00FD0B692CFC0B692C0000C2
:1008DC00632CAC0A0319AD0A871C8F2C8030F000F6
:1008EC0080302D067002031D7D2C2C08003C031853
:1008FC008F2C871C8B2C1A30FC00F830FD00FD0B64
:10090C00852CFC0B852C00007F2C0130AC02031CC9
:10091C00AD032C08203E840000088600071CB02C78
:10092C0080302D06F00080307002031D9F2C0930A2
:10093C002C020318B02C071CAD2C1A30FC00F8301C
:10094C00FD00FD0BA72CFC0BA72C0000A12CAC0A66
:10095C000319AD0A871CCD2C8030F00080302D0699
:10096C007002031DBB2C2C08003C0318CD2C871CDB
:10097C00C92C1A30FC00F830FD00FD0BC32CFC0B0D
:10098C00C32C0000BD2C0130AC02031CAD032C08A1
:10099C00203E840000088600071CEE2C80302D06BB
:1009AC00F00080307002031DDD2C09302C0203187E
:1009BC00EE2C071CEB2C1A30FC00F830FD00FD0B64
:1009CC00E52CFC0BE52C0000DF2CAC0A0319AD0A5E
:1009DC00871C0B2D8030F00080302D067002031D1B
:1009EC00F92C2C08003C03180B2D871C072D1A30F2
:1009FC00FC00F830FD00FD0B012DFC0B012D00005F
:100A0C00FB2C0130AC02031CAD032C08203E8400EF
:100A1C0000088600071C2C2D80302D06F00080303D
:100A2C007002031D1B2D09302C0203182C2D071CE2
:100A3C00292D1A30FC00F830FD00FD0B232DFC0B8A
:100A4C00232D00001D2DAC0A0319AD0A871C492D5E
:100A5C008030F00080302D067002031D372D2C08DD
:100A6C00003C0318492D871C452D1A30FC00F8302A
:100A7C00FD00FD0B3F2DFC0B3F2D0000392D0130EF
:100A8C00AC02031CAD032C08203E84000008860039
:100A9C00071C6A2D80302D06F00080307002031D7B
:100AAC00592D09302C0203186A2D071C672D1A309A
:100ABC00FC00F830FD00FD0B612DFC0B612D0000DE
:100ACC005B2DAC0A0319AD0A871C872D8030F00012
:100ADC0080302D067002031D752D2C08003C031868
:100AEC00872D871C832D1A30FC00F830FD00FD0B80
:100AFC007D2DFC0B7D2D0000772D0130AC02031CED
:100B0C00AD032C08203E840000088600071CA82D8D
:100B1C0080302D06F00080307002031D972D0930B7
:100B2C002C020318A82D071CA52D1A30FC00F83038
:100B3C00FD00FD0B9F2DFC0B9F2D0000992DAC0A89
:100B4C000319AD0A871CC52D8030F00080302D06AE
:100B5C007002031DB32D2C08003C0318C52D871CF7
:100B6C00C12D1A30FC00F830FD00FD0BBB2DFC0B29
:100B7C00BB2D0000B52D0130AC02031CAD032C08BD
:0C0B8C00203E8400000886003828CB2D95
:02400E004A2F37
:00000001FF
