:020000001628C0
:0E000600831203132B088A002A0882000800C8
:1000140003208A110A128000840AAA0A0319AB0A6F
:08002400F003031D0A28080087
:10002C003F3083120313A0000630A1005B30A20006
:10003C004F30A3006630A4006D30A5007D30A600C3
:10004C000730A7007F30A8006F30A900AC01AD01CC
:10005C00AE01AF01AC01AD0180302D06F000803057
:10006C007002031D3B2804302C0203184E282C0868
:10007C00F0002D08F100F00DF10D70107008733EBA
:10008C0084008001840A8001AC0A0319AD0A32286D
:10009C00AC01AD0183168601870183128601FF3006
:1000AC00870000302D06031D5D2819302C06031D1A
:1000BC00B328AC01AD01AE01AF0180302F06F000CA
:1000CC0080307002031D6C2804302E020318B328F4
:1000DC002E08F0002F08F100F00DF10D70107008D3
:1000EC00733E84000008F100840A0008F20000301E
:1000FC007206031D832809307106031D93282E08F0
:10010C00F0002F08F100F00DF10D70107008733E27
:10011C0084008001840A8001AF282E08F0002F088B
:10012C00F100F00DF10D70107008733EF2007208C2
:10013C0084000008F000840A0008F100F00A03199A
:10014C00F10A72088400700880007108840A80002B
:10015C00B328AE0A0319AF0A632807107908203EAA
:10016C008400000886001A30FC00F830FD00FD0BFE
:10017C00BD28FC0BBD280000071487107708203E13
:10018C008400000886001A30FC00F830FD00FD0BDE
:10019C00CD28FC0BCD280000871407117508203ED4
:1001AC008400000886001A30FC00F830FD00FD0BBE
:1001BC00DD28FC0BDD280000071587117308203E95
:1001CC008400000886001A30FC00F830FD00FD0B9E
:1001DC00ED28FC0BED2800008715AC0A0319AD0ABD
:0401EC005728F72871
:02400E004A2F37
:00000001FF
